:100000000C942A000C9434000C9434000C943400AA
:100010000C9434000C9434000C9434000C94340090
:100020000C9434000C9434000C9434000C94340080
:100030000C9434000C9434000C9434000C94340070
:100040000C9434000C9434000C9434000C94340060
:100050000C94340011241FBECFE5D8E0DEBFCDBF25
:100060000E9436000C9448000C94000084B3806811
:1000700084BB86B1807886B917B880B7887080BF96
:1000800018B8459B03C080E885BBFBCF15BAF9CFF4
:04009000F894FFCF12
:00000001FF
