S00E00007478787878782E737265634A
S11300000C942A000C9434000C9434000C943400A6
S11300100C9434000C9434000C9434000C9434008C
S11300200C9434000C9434000C9434000C9434007C
S11300300C9434000C9434000C9434000C9434006C
S11300400C9434000C9434000C9434000C9434005C
S11300500C94340011241FBECFE5D8E0DEBFCDBF21
S11300600E944B000C9452000C94000010BC80E5DC
S113007089B988E18AB986E080BD08958CB92FEFEB
S113008083E294EF215080409040E1F700C00000EB
S113009008958CB108950E9436000E9449000E9480
S10B00A03E00FBCFF894FFCFF2
S9030000FC
