S00E0000566F746565652E73726563AE
S11300000C942A000C943F000C943F000C943F0085
S11300100C943F000C943F000C943F000C943F0060
S11300200C943F000C943F000C943F000C943F0050
S11300300C943F000C943F000C943F000C943F0040
S11300400C943F000C943F000C943F000C943F0030
S11300500C943F0011241FBECFE5D8E0DEBFCDBF16
S113006011E0A0E6B0E0E4E1F3E002C005900D92F7
S1130070AC30B107D9F70E94D4000C9488010C94D9
S1130080000088BB8BB38E7F8BBB8BB382608BBB32
S11300908FE891E00197F1F700C000008BB38D7FEA
S11300A08BBB089588BB8BB381608BBB8BB38260A1
S11300B08BBB8FE891E00197F1F700C000008BB390
S11300C08D7F8BBB089588E30E9441008FEC97E0FD
S11300D00197F1F700C0000081E00E9441008FEC1D
S11300E097E00197F1F700C000008CE00E94410006
S11300F08FEC97E00197F1F700C0000086E00E94C2
S113010041008FEC97E00197F1F700C0000080E810
S11301100E9441008FEC97E00197F1F700C00000C6
S113012008959FEF980F923028F49FEF960F903127
S113013020F405C061E081E002C061E081E081302B
S113014029F480E8860F0E944100089580EC860F10
S11301500E9441000895CF93DF93EA010E94910029
S113016003C00E945200219688818111FACFDF9149
S1130170CF9108950F931F93CF93DF93182F062FDA
S1130180EA0181E00E944100602F812F0E949100CA
S113019003C00E945200219688818111FACFDF9119
S11301A0CF911F910F9108958CEF81BB14BA8FEFFB
S11301B087BB8AB381608ABB8AB382608ABB0E9490
S11301C0630040E650E061E081E00E94BA00C0E0D4
S11301D0809B16C04BE650E061E081E00E94BA00CB
S11301E048E750E062E082E00E94AB002FEF89EF25
S11301F090E0215080409040E1F700C00000C160D1
S1130200819B1CC047E850E061E081E00E94BA0095
S11302102FEF89EF90E0215080409040E1F700C03B
S1130220000045E950E061E081E00E94AB0045EA4E
S113023050E062E082E00E94AB00C0E0C0FFC8CFA3
S11302408C2F8470C2FF10C0C3FD0EC04DEA50E075
S113025061E081E00E94BA004EEB50E062E082E08F
S11302600E94AB00C860B4CF989B13C0811111C029
S11302704CEC50E061E081E00E94BA002FEF83EF84
S113028091E0215080409040E1F700C00000C4603C
S11302909FCF999B13C0811111C04CED50E061E0D8
S11302A081E00E94BA002FEF83EF91E0215080405B
S11302B09040E1F700C00000C4608ACF9A9B13C04D
S11302C0811111C04CEE50E061E081E00E94BA005F
S11302D02FEF83EF91E0215080409040E1F700C080
S11302E00000C46075CF9B9B73CF811171CF4CEF1D
S11302F050E061E081E00E94BA002FEF83EF91E0CB
S1130300215080409040E1F700C00000C46060CFFD
S1070310F894FFCF8B
S113031445564D20526561647921005072657373AA
S113032420427574746F6E00746F205265636F722B
S11303346420566F746500566F7465205265636F4C
S11303447264656400456C656374726F6E696320DE
S1130354566F7465004D616368696E6500566F7409
S11303646564205265636F72646564212100506C76
S1130374656173652051756974212100566F746534
S113038464203A204120506172747900566F746578
S113039464203A204220506172747900566F746567
S11303A464203A204320506172747900566F746556
S10F03B464203A204420506172747900E7
S9030000FC
