:100000000C942A000C943F000C943F000C943F0089
:100010000C943F000C943F000C943F000C943F0064
:100020000C943F000C943F000C943F000C943F0054
:100030000C943F000C943F000C943F000C943F0044
:100040000C943F000C943F000C943F000C943F0034
:100050000C943F0011241FBECFE5D8E0DEBFCDBF1A
:1000600010E0A0E6B0E0EAECF1E002C005900D92ED
:10007000AC36B107D9F70E94BA000C94E3000C9497
:10008000000088BB8BB38E7F8BBB8BB382608BBB36
:100090008FE891E00197F1F700C000008BB38D7FEE
:1000A0008BBB089588BB8BB381608BBB8BB38260A5
:1000B0008BBB8FE891E00197F1F700C000008BB394
:1000C0008D7F8BBB089588E30E9441008FEC97E001
:1000D0000197F1F700C0000081E00E9441008FEC21
:1000E00097E00197F1F700C000008CE00E9441000A
:1000F0008FEC97E00197F1F700C0000086E00E94C6
:1001000041008FEC97E00197F1F700C0000080E814
:100110000E9441008FEC97E00197F1F700C00000CA
:1001200008959FEF980F923028F49FEF960F90312B
:1001300020F405C061E081E002C061E081E081302F
:1001400029F480E8860F0E944100089580EC860F14
:100150000E9441000895CF93DF93EA010E9491002D
:1001600003C00E945200219688818111FACFDF914D
:10017000CF9108958CEF81BB81E884BB8FEF87BB63
:100180008AB381608ABB8AB382608ABB0E946300A3
:1001900040E650E060E081E00E94AB0080B388233D
:1001A00021F085B3816085BB03C085B38E7F85BB9D
:1001B00080B3882321F085B3806885BBEFCF85B3FA
:0A01C0008F7785BBEBCFF894FFCFDB
:0C01CA00736B696C6C2D6C796E63000027
:00000001FF
