S0170000493243696E746572666163653332382E7372656301
S11300000C9434000C943E000C943E000C943E007E
S11300100C943E000C943E000C943E000C943E0064
S11300200C943E000C943E000C943E000C943E0054
S11300300C943E000C943E000C943E000C943E0044
S11300400C943E000C943E000C943E000C943E0034
S11300500C943E000C943E000C943E000C943E0024
S11300600C943E000C943E0011241FBECFEFD8E048
S1130070DEBFCDBF0E9453000C9473000C940000AB
S113008084EA8093BC0008958093BB00ECEBF0E01D
S113009084E880838081089582E08093B90082E1BE
S11300A08093B80008950E944C000E94400087E9A4
S11300B00E94440081EE94E00197F1F700C0000033
S11300C084E90E94440081EE94E00197F1F700C0B6
S11300D0000085E90E94440081EE94E00197F1F765
S10D00E000C00000FFCFF894FFCF2A
S9030000FC
