:100000000C9434000C943E000C943E000C943E0082
:100010000C943E000C943E000C943E000C943E0068
:100020000C943E000C943E000C943E000C943E0058
:100030000C943E000C943E000C943E000C943E0048
:100040000C943E000C943E000C943E000C943E0038
:100050000C943E000C943E000C943E000C943E0028
:100060000C943E000C943E0011241FBECFEFD8E04C
:10007000DEBFCDBF0E944E000C9453000C940000D4
:100080008CE284B981E58CBD089585B1846085B921
:1000900080EF8EBD0DB407FEFDCF08950E94400095
:0A00A0000E944500FBCFF894FFCF4B
:00000001FF
